export const transactionTestEip155VitalikTestsData = [
  {
    blocknumber: '3500000',
    hash: 'dd23e47d62bf04a50c2a03dcd518bb1f98568be6f7fcab7065c6b19861fa0aca',
    rlp: '0xf866808504a817c8008252089435353535353535353535353535353535353535358080808025a0044852b2a670ade5407e78fb2863c51de9fcb96542a07186fe3aeda6bb8a116da0044852b2a670ade5407e78fb2863c51de9fcb96542a07186fe3aeda6bb8a116d',
    sender: 'f19c9c5cd7426df7e29e2e2555ae066334075c5f',
    transaction: {
      data: '',
      gasLimit: '0x5208',
      gasPrice: '0x04a817c800',
      nonce: '0x',
      r: '0x044852b2a670ade5407e78fb2863c51de9fcb96542a07186fe3aeda6bb8a116d',
      s: '0x044852b2a670ade5407e78fb2863c51de9fcb96542a07186fe3aeda6bb8a116d',
      to: '0x3535353535353535353535353535353535353535',
      v: '0x25',
      value: '0x00',
    },
  },
  {
    blocknumber: '3500000',
    hash: '3624956648cbfe509d8b99aaa474b3978ad2bb205fad157c74cd4f497c32f079',
    rlp: '0xf869088504a817c8088302e24894353535353535353535353535353535353535353582020080808025a064b1702d9298fee62dfeccc57d322a463ad55ca201256d01f62b45b2e1c21c12a064b1702d9298fee62dfeccc57d322a463ad55ca201256d01f62b45b2e1c21c10',
    sender: 'c45e01cbecd1cd2653738f6bffc2b1001927fe0a',
    transaction: {
      data: '',
      gasLimit: '0x02e248',
      gasPrice: '0x04a817c808',
      nonce: '0x08',
      r: '0x64b1702d9298fee62dfeccc57d322a463ad55ca201256d01f62b45b2e1c21c12',
      s: '0x64b1702d9298fee62dfeccc57d322a463ad55ca201256d01f62b45b2e1c21c10',
      to: '0x3535353535353535353535353535353535353535',
      v: '0x25',
      value: '0x0200',
    },
  },
  {
    blocknumber: '3500000',
    hash: 'f710a62f9672f8fe43cad26470bf5a6936acd0a32e9bc574ab512c7d3bb3d07a',
    rlp: '0xf869098504a817c809830334509435353535353535353535353535353535353535358202d980808025a052f8f61201b2b11a78d6e866abc9c3db2ae8631fa656bfe5cb53668255367afba052f8f61201b2b11a78d6e866abc9c3db2ae8631fa656bfe5cb53668255367afb',
    sender: '001649b0fcfb49b7328dc952b95db3a67acf7297',
    transaction: {
      data: '',
      gasLimit: '0x033450',
      gasPrice: '0x04a817c809',
      nonce: '0x09',
      r: '0x52f8f61201b2b11a78d6e866abc9c3db2ae8631fa656bfe5cb53668255367afb',
      s: '0x52f8f61201b2b11a78d6e866abc9c3db2ae8631fa656bfe5cb53668255367afb',
      to: '0x3535353535353535353535353535353535353535',
      v: '0x25',
      value: '0x02d9',
    },
  },
  {
    blocknumber: '3500000',
    hash: '5ff59c2d2e2d2600614bda32d0d62d27d5355e6828f15a6b601afa0d3db9cbd1',
    rlp: '0xf866018504a817c80182a4109435353535353535353535353535353535353535350180808025a0489efdaa54c0f20c7adf612882df0950f5a951637e0307cdcb4c672f298b8bcaa0489efdaa54c0f20c7adf612882df0950f5a951637e0307cdcb4c672f298b8bc6',
    sender: '93eb3988e0c448d00f2b39f5299a0fc9cc656f06',
    transaction: {
      data: '',
      gasLimit: '0xa410',
      gasPrice: '0x04a817c801',
      nonce: '0x01',
      r: '0x489efdaa54c0f20c7adf612882df0950f5a951637e0307cdcb4c672f298b8bca',
      s: '0x489efdaa54c0f20c7adf612882df0950f5a951637e0307cdcb4c672f298b8bc6',
      to: '0x3535353535353535353535353535353535353535',
      v: '0x25',
      value: '0x01',
    },
  },
  {
    blocknumber: '3500000',
    hash: 'cfdae36221d41102a4103c0a0b13de328b09c492fe0c0a97a48fb16fcffca546',
    rlp: '0xf866028504a817c80282f6189435353535353535353535353535353535353535350880808025a02d7c5bef027816a800da1736444fb58a807ef4c9603b7848673f7e3a68eb14a5a02d7c5bef027816a800da1736444fb58a807ef4c9603b7848673f7e3a68eb14a5',
    sender: 'cde8e3256d7dfd13acfbae7f852204e6aa782d45',
    transaction: {
      data: '',
      gasLimit: '0xf618',
      gasPrice: '0x04a817c802',
      nonce: '0x02',
      r: '0x2d7c5bef027816a800da1736444fb58a807ef4c9603b7848673f7e3a68eb14a5',
      s: '0x2d7c5bef027816a800da1736444fb58a807ef4c9603b7848673f7e3a68eb14a5',
      to: '0x3535353535353535353535353535353535353535',
      v: '0x25',
      value: '0x08',
    },
  },
  {
    blocknumber: '3500000',
    hash: 'fafefafc0d9691c37e56e752fd5d126542460441c1ee96d272d60614b3a65cf4',
    rlp: '0xf867038504a817c803830148209435353535353535353535353535353535353535351b80808025a02a80e1ef1d7842f27f2e6be0972bb708b9a135c38860dbe73c27c3486c34f4e0a02a80e1ef1d7842f27f2e6be0972bb708b9a135c38860dbe73c27c3486c34f4de',
    sender: '5dba0534c331483679655aa6df1f5785d5ecedd2',
    transaction: {
      data: '',
      gasLimit: '0x014820',
      gasPrice: '0x04a817c803',
      nonce: '0x03',
      r: '0x2a80e1ef1d7842f27f2e6be0972bb708b9a135c38860dbe73c27c3486c34f4e0',
      s: '0x2a80e1ef1d7842f27f2e6be0972bb708b9a135c38860dbe73c27c3486c34f4de',
      to: '0x3535353535353535353535353535353535353535',
      v: '0x25',
      value: '0x1b',
    },
  },
  {
    blocknumber: '3500000',
    hash: '1594126fdeb2b6778506ab0187ad852efb62ad56277abc4240dd9a70ea99da64',
    rlp: '0xf867048504a817c80483019a289435353535353535353535353535353535353535354080808025a013600b294191fc92924bb3ce4b969c1e7e2bab8f4c93c3fc6d0a51733df3c063a013600b294191fc92924bb3ce4b969c1e7e2bab8f4c93c3fc6d0a51733df3c060',
    sender: 'e0fe29d4b787467c3d140796df5ca6619f41df30',
    transaction: {
      data: '',
      gasLimit: '0x019a28',
      gasPrice: '0x04a817c804',
      nonce: '0x04',
      r: '0x13600b294191fc92924bb3ce4b969c1e7e2bab8f4c93c3fc6d0a51733df3c063',
      s: '0x13600b294191fc92924bb3ce4b969c1e7e2bab8f4c93c3fc6d0a51733df3c060',
      to: '0x3535353535353535353535353535353535353535',
      v: '0x25',
      value: '0x40',
    },
  },
  {
    blocknumber: '3500000',
    hash: 'e425f8133ad912fee163af5c7d6c8c0f4c3f7dce5bc8a44c3fe00d03a37962a9',
    rlp: '0xf867058504a817c8058301ec309435353535353535353535353535353535353535357d80808025a04eebf77a833b30520287ddd9478ff51abbdffa30aa90a8d655dba0e8a79ce0c1a04eebf77a833b30520287ddd9478ff51abbdffa30aa90a8d655dba0e8a79ce0c1',
    sender: 'b6ff2bebe8261982f061dd60bfaaa35cf5ab00d3',
    transaction: {
      data: '',
      gasLimit: '0x01ec30',
      gasPrice: '0x04a817c805',
      nonce: '0x05',
      r: '0x4eebf77a833b30520287ddd9478ff51abbdffa30aa90a8d655dba0e8a79ce0c1',
      s: '0x4eebf77a833b30520287ddd9478ff51abbdffa30aa90a8d655dba0e8a79ce0c1',
      to: '0x3535353535353535353535353535353535353535',
      v: '0x25',
      value: '0x7d',
    },
  },
  {
    blocknumber: '3500000',
    hash: 'e425f8133ad912fee163af5c7d6c8c0f4c3f7dce5bc8a44c3fe00d03a37962a9',
    rlp: '0xf867058504a817c8058301ec309435353535353535353535353535353535353535357d80808025a04eebf77a833b30520287ddd9478ff51abbdffa30aa90a8d655dba0e8a79ce0c1a04eebf77a833b30520287ddd9478ff51abbdffa30aa90a8d655dba0e8a79ce0c1',
    sender: 'b6ff2bebe8261982f061dd60bfaaa35cf5ab00d3',
    transaction: {
      data: '',
      gasLimit: '0x01ec30',
      gasPrice: '0x04a817c805',
      nonce: '0x05',
      r: '0x4eebf77a833b30520287ddd9478ff51abbdffa30aa90a8d655dba0e8a79ce0c1',
      s: '0x4eebf77a833b30520287ddd9478ff51abbdffa30aa90a8d655dba0e8a79ce0c1',
      to: '0x3535353535353535353535353535353535353535',
      v: '0x25',
      value: '0x7d',
    },
  },
  {
    blocknumber: '3500000',
    hash: '12c50f751978afab442175491e20f809b46da916365e1a45d6f8e3e7f531079d',
    rlp: '0xf868068504a817c80683023e3894353535353535353535353535353535353535353581d880808025a06455bf8ea6e7463a1046a0b52804526e119b4bf5136279614e0b1e8e296a4e2fa06455bf8ea6e7463a1046a0b52804526e119b4bf5136279614e0b1e8e296a4e2d',
    sender: 'fbfe0bfb2a2a927b40f4e32b2d11c85cd39c4bbe',
    transaction: {
      data: '',
      gasLimit: '0x023e38',
      gasPrice: '0x04a817c806',
      nonce: '0x06',
      r: '0x6455bf8ea6e7463a1046a0b52804526e119b4bf5136279614e0b1e8e296a4e2f',
      s: '0x6455bf8ea6e7463a1046a0b52804526e119b4bf5136279614e0b1e8e296a4e2d',
      to: '0x3535353535353535353535353535353535353535',
      v: '0x25',
      value: '0xd8',
    },
  },
  {
    blocknumber: '3500000',
    hash: '3218e2e77a4bc0c294d3b32a1ca08931bbce17571cfe014b7a5c34194fed54bb',
    rlp: '0xf869078504a817c8078302904094353535353535353535353535353535353535353582015780808025a052f1a9b320cab38e5da8a8f97989383aab0a49165fc91c737310e4f7e9821021a052f1a9b320cab38e5da8a8f97989383aab0a49165fc91c737310e4f7e9821021',
    sender: '6ec5f76d71cdeccafef4af488cedc1d6f99af476',
    transaction: {
      data: '',
      gasLimit: '0x029040',
      gasPrice: '0x04a817c807',
      nonce: '0x07',
      r: '0x52f1a9b320cab38e5da8a8f97989383aab0a49165fc91c737310e4f7e9821021',
      s: '0x52f1a9b320cab38e5da8a8f97989383aab0a49165fc91c737310e4f7e9821021',
      to: '0x3535353535353535353535353535353535353535',
      v: '0x25',
      value: '0x0157',
    },
  },
]
